{
  "contractName": "CarbonCredit",
  "abi": [
    {
      "inputs": [],
      "payable": false,
      "stateMutability": "nonpayable",
      "type": "constructor"
    },
    {
      "anonymous": false,
      "inputs": [
        {
          "indexed": true,
          "internalType": "address",
          "name": "owner",
          "type": "address"
        },
        {
          "indexed": true,
          "internalType": "address",
          "name": "spender",
          "type": "address"
        },
        {
          "indexed": false,
          "internalType": "uint256",
          "name": "value",
          "type": "uint256"
        }
      ],
      "name": "Approval",
      "type": "event"
    },
    {
      "anonymous": false,
      "inputs": [
        {
          "indexed": true,
          "internalType": "address",
          "name": "from",
          "type": "address"
        },
        {
          "indexed": true,
          "internalType": "address",
          "name": "to",
          "type": "address"
        },
        {
          "indexed": false,
          "internalType": "uint256",
          "name": "value",
          "type": "uint256"
        }
      ],
      "name": "Transfer",
      "type": "event"
    },
    {
      "constant": true,
      "inputs": [
        {
          "internalType": "address",
          "name": "owner",
          "type": "address"
        },
        {
          "internalType": "address",
          "name": "spender",
          "type": "address"
        }
      ],
      "name": "allowance",
      "outputs": [
        {
          "internalType": "uint256",
          "name": "",
          "type": "uint256"
        }
      ],
      "payable": false,
      "stateMutability": "view",
      "type": "function"
    },
    {
      "constant": false,
      "inputs": [
        {
          "internalType": "address",
          "name": "spender",
          "type": "address"
        },
        {
          "internalType": "uint256",
          "name": "amount",
          "type": "uint256"
        }
      ],
      "name": "approve",
      "outputs": [
        {
          "internalType": "bool",
          "name": "",
          "type": "bool"
        }
      ],
      "payable": false,
      "stateMutability": "nonpayable",
      "type": "function"
    },
    {
      "constant": true,
      "inputs": [
        {
          "internalType": "address",
          "name": "account",
          "type": "address"
        }
      ],
      "name": "balanceOf",
      "outputs": [
        {
          "internalType": "uint256",
          "name": "",
          "type": "uint256"
        }
      ],
      "payable": false,
      "stateMutability": "view",
      "type": "function"
    },
    {
      "constant": false,
      "inputs": [
        {
          "internalType": "address",
          "name": "spender",
          "type": "address"
        },
        {
          "internalType": "uint256",
          "name": "subtractedValue",
          "type": "uint256"
        }
      ],
      "name": "decreaseAllowance",
      "outputs": [
        {
          "internalType": "bool",
          "name": "",
          "type": "bool"
        }
      ],
      "payable": false,
      "stateMutability": "nonpayable",
      "type": "function"
    },
    {
      "constant": false,
      "inputs": [
        {
          "internalType": "address",
          "name": "spender",
          "type": "address"
        },
        {
          "internalType": "uint256",
          "name": "addedValue",
          "type": "uint256"
        }
      ],
      "name": "increaseAllowance",
      "outputs": [
        {
          "internalType": "bool",
          "name": "",
          "type": "bool"
        }
      ],
      "payable": false,
      "stateMutability": "nonpayable",
      "type": "function"
    },
    {
      "constant": true,
      "inputs": [],
      "name": "totalSupply",
      "outputs": [
        {
          "internalType": "uint256",
          "name": "",
          "type": "uint256"
        }
      ],
      "payable": false,
      "stateMutability": "view",
      "type": "function"
    },
    {
      "constant": false,
      "inputs": [
        {
          "internalType": "address",
          "name": "recipient",
          "type": "address"
        },
        {
          "internalType": "uint256",
          "name": "amount",
          "type": "uint256"
        }
      ],
      "name": "transfer",
      "outputs": [
        {
          "internalType": "bool",
          "name": "",
          "type": "bool"
        }
      ],
      "payable": false,
      "stateMutability": "nonpayable",
      "type": "function"
    },
    {
      "constant": false,
      "inputs": [
        {
          "internalType": "address",
          "name": "sender",
          "type": "address"
        },
        {
          "internalType": "address",
          "name": "recipient",
          "type": "address"
        },
        {
          "internalType": "uint256",
          "name": "amount",
          "type": "uint256"
        }
      ],
      "name": "transferFrom",
      "outputs": [
        {
          "internalType": "bool",
          "name": "",
          "type": "bool"
        }
      ],
      "payable": false,
      "stateMutability": "nonpayable",
      "type": "function"
    },
    {
      "constant": false,
      "inputs": [
        {
          "internalType": "uint256",
          "name": "generatorId",
          "type": "uint256"
        },
        {
          "internalType": "string",
          "name": "name",
          "type": "string"
        },
        {
          "internalType": "address",
          "name": "thisAdd",
          "type": "address"
        }
      ],
      "name": "createGenerator",
      "outputs": [],
      "payable": false,
      "stateMutability": "nonpayable",
      "type": "function"
    },
    {
      "constant": false,
      "inputs": [
        {
          "internalType": "uint256",
          "name": "consumerId",
          "type": "uint256"
        },
        {
          "internalType": "string",
          "name": "name",
          "type": "string"
        },
        {
          "internalType": "address",
          "name": "thisAdd",
          "type": "address"
        }
      ],
      "name": "createConsumer",
      "outputs": [],
      "payable": false,
      "stateMutability": "nonpayable",
      "type": "function"
    },
    {
      "constant": false,
      "inputs": [
        {
          "internalType": "uint256",
          "name": "generatorId",
          "type": "uint256"
        },
        {
          "internalType": "uint256",
          "name": "credit",
          "type": "uint256"
        }
      ],
      "name": "allocateCredit",
      "outputs": [],
      "payable": false,
      "stateMutability": "nonpayable",
      "type": "function"
    },
    {
      "constant": false,
      "inputs": [
        {
          "internalType": "uint256",
          "name": "consumerId",
          "type": "uint256"
        },
        {
          "internalType": "uint256",
          "name": "emission",
          "type": "uint256"
        }
      ],
      "name": "reportEmission",
      "outputs": [],
      "payable": false,
      "stateMutability": "nonpayable",
      "type": "function"
    },
    {
      "constant": false,
      "inputs": [
        {
          "internalType": "uint256",
          "name": "consumerId",
          "type": "uint256"
        },
        {
          "internalType": "uint256",
          "name": "delta",
          "type": "uint256"
        },
        {
          "internalType": "bool",
          "name": "subtract",
          "type": "bool"
        }
      ],
      "name": "updateConsumerBalance",
      "outputs": [],
      "payable": false,
      "stateMutability": "nonpayable",
      "type": "function"
    },
    {
      "constant": false,
      "inputs": [
        {
          "internalType": "uint256",
          "name": "generatorId",
          "type": "uint256"
        },
        {
          "internalType": "uint256",
          "name": "delta",
          "type": "uint256"
        },
        {
          "internalType": "bool",
          "name": "subtract",
          "type": "bool"
        }
      ],
      "name": "updateGeneratorBalance",
      "outputs": [],
      "payable": false,
      "stateMutability": "nonpayable",
      "type": "function"
    },
    {
      "constant": false,
      "inputs": [
        {
          "internalType": "uint256",
          "name": "consumerId",
          "type": "uint256"
        }
      ],
      "name": "getConsumerCredits",
      "outputs": [
        {
          "internalType": "uint256",
          "name": "credit",
          "type": "uint256"
        }
      ],
      "payable": false,
      "stateMutability": "nonpayable",
      "type": "function"
    },
    {
      "constant": false,
      "inputs": [
        {
          "internalType": "uint256",
          "name": "generatorId",
          "type": "uint256"
        }
      ],
      "name": "getGeneratorCredits",
      "outputs": [
        {
          "internalType": "uint256",
          "name": "credit",
          "type": "uint256"
        }
      ],
      "payable": false,
      "stateMutability": "nonpayable",
      "type": "function"
    },
    {
      "constant": false,
      "inputs": [
        {
          "internalType": "uint256",
          "name": "ID",
          "type": "uint256"
        }
      ],
      "name": "isGenerator",
      "outputs": [
        {
          "internalType": "bool",
          "name": "doesExist",
          "type": "bool"
        }
      ],
      "payable": false,
      "stateMutability": "nonpayable",
      "type": "function"
    },
    {
      "constant": false,
      "inputs": [
        {
          "internalType": "uint256",
          "name": "ID",
          "type": "uint256"
        }
      ],
      "name": "isConsumer",
      "outputs": [
        {
          "internalType": "bool",
          "name": "doesExist",
          "type": "bool"
        }
      ],
      "payable": false,
      "stateMutability": "nonpayable",
      "type": "function"
    }
  ],
  "bytecode": "0x608060405234801561001057600080fd5b5033600360006101000a81548173ffffffffffffffffffffffffffffffffffffffff021916908373ffffffffffffffffffffffffffffffffffffffff160217905550611c9d806100616000396000f3fe608060405234801561001057600080fd5b50600436106101165760003560e01c806370a08231116100a2578063a9059cbb11610071578063a9059cbb146105bc578063b272f72d14610622578063dd62ed3e1461065a578063df4b4ba4146106d2578063fa25f970146107b757610116565b806370a08231146104845780638213aab9146104dc5780638ff283c214610514578063a457c2d71461055657610116565b806337c98264116100e957806337c982641461026b57806339509351146102b1578063528b324a146103175780636792c7501461035b57806367a8f5cb1461044057610116565b8063095ea7b31461011b5780630bdb30691461018157806318160ddd146101c757806323b872dd146101e5575b600080fd5b6101676004803603604081101561013157600080fd5b81019080803573ffffffffffffffffffffffffffffffffffffffff169060200190929190803590602001909291905050506107f9565b604051808215151515815260200191505060405180910390f35b6101ad6004803603602081101561019757600080fd5b8101908080359060200190929190505050610817565b604051808215151515815260200191505060405180910390f35b6101cf610841565b6040518082815260200191505060405180910390f35b610251600480360360608110156101fb57600080fd5b81019080803573ffffffffffffffffffffffffffffffffffffffff169060200190929190803573ffffffffffffffffffffffffffffffffffffffff1690602001909291908035906020019092919050505061084b565b604051808215151515815260200191505060405180910390f35b6102976004803603602081101561028157600080fd5b8101908080359060200190929190505050610924565b604051808215151515815260200191505060405180910390f35b6102fd600480360360408110156102c757600080fd5b81019080803573ffffffffffffffffffffffffffffffffffffffff1690602001909291908035906020019092919050505061094e565b604051808215151515815260200191505060405180910390f35b6103596004803603606081101561032d57600080fd5b810190808035906020019092919080359060200190929190803515159060200190929190505050610a01565b005b61043e6004803603606081101561037157600080fd5b81019080803590602001909291908035906020019064010000000081111561039857600080fd5b8201836020820111156103aa57600080fd5b803590602001918460018302840111640100000000831117156103cc57600080fd5b91908080601f016020809104026020016040519081016040528093929190818152602001838380828437600081840152601f19601f820116905080830192505050505050509192919290803573ffffffffffffffffffffffffffffffffffffffff169060200190929190505050610a8b565b005b6104826004803603606081101561045657600080fd5b810190808035906020019092919080359060200190929190803515159060200190929190505050610c56565b005b6104c66004803603602081101561049a57600080fd5b81019080803573ffffffffffffffffffffffffffffffffffffffff169060200190929190505050610ce0565b6040518082815260200191505060405180910390f35b610512600480360360408110156104f257600080fd5b810190808035906020019092919080359060200190929190505050610d28565b005b6105406004803603602081101561052a57600080fd5b8101908080359060200190929190505050610e2b565b6040518082815260200191505060405180910390f35b6105a26004803603604081101561056c57600080fd5b81019080803573ffffffffffffffffffffffffffffffffffffffff16906020019092919080359060200190929190505050610e7c565b604051808215151515815260200191505060405180910390f35b610608600480360360408110156105d257600080fd5b81019080803573ffffffffffffffffffffffffffffffffffffffff16906020019092919080359060200190929190505050610f49565b604051808215151515815260200191505060405180910390f35b6106586004803603604081101561063857600080fd5b810190808035906020019092919080359060200190929190505050610f67565b005b6106bc6004803603604081101561067057600080fd5b81019080803573ffffffffffffffffffffffffffffffffffffffff169060200190929190803573ffffffffffffffffffffffffffffffffffffffff169060200190929190505050611021565b6040518082815260200191505060405180910390f35b6107b5600480360360608110156106e857600080fd5b81019080803590602001909291908035906020019064010000000081111561070f57600080fd5b82018360208201111561072157600080fd5b8035906020019184600183028401116401000000008311171561074357600080fd5b91908080601f016020809104026020016040519081016040528093929190818152602001838380828437600081840152601f19601f820116905080830192505050505050509192919290803573ffffffffffffffffffffffffffffffffffffffff1690602001909291905050506110a8565b005b6107e3600480360360208110156107cd57600080fd5b8101908080359060200190929190505050611236565b6040518082815260200191505060405180910390f35b600061080d610806611287565b848461128f565b6001905092915050565b60006007600083815260200190815260200160002060009054906101000a900460ff169050919050565b6000600254905090565b6000610858848484611486565b61091984610864611287565b61091485604051806060016040528060288152602001611bd360289139600160008b73ffffffffffffffffffffffffffffffffffffffff1673ffffffffffffffffffffffffffffffffffffffff16815260200190815260200160002060006108ca611287565b73ffffffffffffffffffffffffffffffffffffffff1673ffffffffffffffffffffffffffffffffffffffff1681526020019081526020016000205461173c9092919063ffffffff16565b61128f565b600190509392505050565b60006008600083815260200190815260200160002060009054906101000a900460ff169050919050565b60006109f761095b611287565b846109f2856001600061096c611287565b73ffffffffffffffffffffffffffffffffffffffff1673ffffffffffffffffffffffffffffffffffffffff16815260200190815260200160002060008973ffffffffffffffffffffffffffffffffffffffff1673ffffffffffffffffffffffffffffffffffffffff168152602001908152602001600020546117fc90919063ffffffff16565b61128f565b6001905092915050565b600115156008600085815260200190815260200160002060009054906101000a900460ff16151514610a3257600080fd5b8015610a6157816005600085815260200190815260200160002060010160008282540392505081905550610a86565b8160056000858152602001908152602001600020600101600082825401925050819055505b505050565b3373ffffffffffffffffffffffffffffffffffffffff16600360009054906101000a900473ffffffffffffffffffffffffffffffffffffffff1673ffffffffffffffffffffffffffffffffffffffff1614610ae557600080fd5b600015156008600085815260200190815260200160002060009054906101000a900460ff16151514610b1657600080fd5b610b1e611a3f565b6040518060a0016040528085815260200160648152602001600081526020018481526020018373ffffffffffffffffffffffffffffffffffffffff16815250905080600560008681526020019081526020016000206000820151816000015560208201518160010155604082015181600201556060820151816003019080519060200190610bad929190611a84565b5060808201518160040160006101000a81548173ffffffffffffffffffffffffffffffffffffffff021916908373ffffffffffffffffffffffffffffffffffffffff16021790555090505060016008600086815260200190815260200160002060006101000a81548160ff021916908315150217905550600984908060018154018082558091505090600182039060005260206000200160009091929091909150555050505050565b600115156007600085815260200190815260200160002060009054906101000a900460ff16151514610c8757600080fd5b8015610cb657816004600085815260200190815260200160002060010160008282540392505081905550610cdb565b8160046000858152602001908152602001600020600101600082825401925050819055505b505050565b60008060008373ffffffffffffffffffffffffffffffffffffffff1673ffffffffffffffffffffffffffffffffffffffff168152602001908152602001600020549050919050565b60011515600660003373ffffffffffffffffffffffffffffffffffffffff1673ffffffffffffffffffffffffffffffffffffffff16815260200190815260200160002060009054906101000a900460ff16151514610d8557600080fd5b600115156007600084815260200190815260200160002060009054906101000a900460ff16151514610db657600080fd5b60008111610dc357600080fd5b610e036004600084815260200190815260200160002060030160009054906101000a900473ffffffffffffffffffffffffffffffffffffffff1682611884565b8060046000848152602001908152602001600020600101600082825401925050819055505050565b6000600115156007600084815260200190815260200160002060009054906101000a900460ff16151514610e5e57600080fd5b60046000838152602001908152602001600020600101549050919050565b6000610f3f610e89611287565b84610f3a85604051806060016040528060258152602001611c446025913960016000610eb3611287565b73ffffffffffffffffffffffffffffffffffffffff1673ffffffffffffffffffffffffffffffffffffffff16815260200190815260200160002060008a73ffffffffffffffffffffffffffffffffffffffff1673ffffffffffffffffffffffffffffffffffffffff1681526020019081526020016000205461173c9092919063ffffffff16565b61128f565b6001905092915050565b6000610f5d610f56611287565b8484611486565b6001905092915050565b60011515600660003373ffffffffffffffffffffffffffffffffffffffff1673ffffffffffffffffffffffffffffffffffffffff16815260200190815260200160002060009054906101000a900460ff16151514610fc457600080fd5b60008111610fd157600080fd5b600115156008600084815260200190815260200160002060009054906101000a900460ff1615151461100257600080fd5b8060056000848152602001908152602001600020600201819055505050565b6000600160008473ffffffffffffffffffffffffffffffffffffffff1673ffffffffffffffffffffffffffffffffffffffff16815260200190815260200160002060008373ffffffffffffffffffffffffffffffffffffffff1673ffffffffffffffffffffffffffffffffffffffff16815260200190815260200160002054905092915050565b3373ffffffffffffffffffffffffffffffffffffffff16600360009054906101000a900473ffffffffffffffffffffffffffffffffffffffff1673ffffffffffffffffffffffffffffffffffffffff161461110257600080fd5b600015156007600085815260200190815260200160002060009054906101000a900460ff1615151461113357600080fd5b61113b611b04565b6040518060800160405280858152602001600081526020018481526020018373ffffffffffffffffffffffffffffffffffffffff1681525090508060046000868152602001908152602001600020600082015181600001556020820151816001015560408201518160020190805190602001906111b9929190611a84565b5060608201518160030160006101000a81548173ffffffffffffffffffffffffffffffffffffffff021916908373ffffffffffffffffffffffffffffffffffffffff16021790555090505060016007600086815260200190815260200160002060006101000a81548160ff02191690831515021790555050505050565b6000600115156008600084815260200190815260200160002060009054906101000a900460ff1615151461126957600080fd5b60056000838152602001908152602001600020600101549050919050565b600033905090565b600073ffffffffffffffffffffffffffffffffffffffff168373ffffffffffffffffffffffffffffffffffffffff161415611315576040517f08c379a0000000000000000000000000000000000000000000000000000000008152600401808060200182810382526024815260200180611c206024913960400191505060405180910390fd5b600073ffffffffffffffffffffffffffffffffffffffff168273ffffffffffffffffffffffffffffffffffffffff16141561139b576040517f08c379a0000000000000000000000000000000000000000000000000000000008152600401808060200182810382526022815260200180611b8b6022913960400191505060405180910390fd5b80600160008573ffffffffffffffffffffffffffffffffffffffff1673ffffffffffffffffffffffffffffffffffffffff16815260200190815260200160002060008473ffffffffffffffffffffffffffffffffffffffff1673ffffffffffffffffffffffffffffffffffffffff168152602001908152602001600020819055508173ffffffffffffffffffffffffffffffffffffffff168373ffffffffffffffffffffffffffffffffffffffff167f8c5be1e5ebec7d5bd14f71427d1e84f3dd0314c0f7b2291e5b200ac8c7c3b925836040518082815260200191505060405180910390a3505050565b600073ffffffffffffffffffffffffffffffffffffffff168373ffffffffffffffffffffffffffffffffffffffff16141561150c576040517f08c379a0000000000000000000000000000000000000000000000000000000008152600401808060200182810382526025815260200180611bfb6025913960400191505060405180910390fd5b600073ffffffffffffffffffffffffffffffffffffffff168273ffffffffffffffffffffffffffffffffffffffff161415611592576040517f08c379a0000000000000000000000000000000000000000000000000000000008152600401808060200182810382526023815260200180611b686023913960400191505060405180910390fd5b6115fd81604051806060016040528060268152602001611bad602691396000808773ffffffffffffffffffffffffffffffffffffffff1673ffffffffffffffffffffffffffffffffffffffff1681526020019081526020016000205461173c9092919063ffffffff16565b6000808573ffffffffffffffffffffffffffffffffffffffff1673ffffffffffffffffffffffffffffffffffffffff16815260200190815260200160002081905550611690816000808573ffffffffffffffffffffffffffffffffffffffff1673ffffffffffffffffffffffffffffffffffffffff168152602001908152602001600020546117fc90919063ffffffff16565b6000808473ffffffffffffffffffffffffffffffffffffffff1673ffffffffffffffffffffffffffffffffffffffff168152602001908152602001600020819055508173ffffffffffffffffffffffffffffffffffffffff168373ffffffffffffffffffffffffffffffffffffffff167fddf252ad1be2c89b69c2b068fc378daa952ba7f163c4a11628f55a4df523b3ef836040518082815260200191505060405180910390a3505050565b60008383111582906117e9576040517f08c379a00000000000000000000000000000000000000000000000000000000081526004018080602001828103825283818151815260200191508051906020019080838360005b838110156117ae578082015181840152602081019050611793565b50505050905090810190601f1680156117db5780820380516001836020036101000a031916815260200191505b509250505060405180910390fd5b5060008385039050809150509392505050565b60008082840190508381101561187a576040517f08c379a000000000000000000000000000000000000000000000000000000000815260040180806020018281038252601b8152602001807f536166654d6174683a206164646974696f6e206f766572666c6f77000000000081525060200191505060405180910390fd5b8091505092915050565b600073ffffffffffffffffffffffffffffffffffffffff168273ffffffffffffffffffffffffffffffffffffffff161415611927576040517f08c379a000000000000000000000000000000000000000000000000000000000815260040180806020018281038252601f8152602001807f45524332303a206d696e7420746f20746865207a65726f20616464726573730081525060200191505060405180910390fd5b61193c816002546117fc90919063ffffffff16565b600281905550611993816000808573ffffffffffffffffffffffffffffffffffffffff1673ffffffffffffffffffffffffffffffffffffffff168152602001908152602001600020546117fc90919063ffffffff16565b6000808473ffffffffffffffffffffffffffffffffffffffff1673ffffffffffffffffffffffffffffffffffffffff168152602001908152602001600020819055508173ffffffffffffffffffffffffffffffffffffffff16600073ffffffffffffffffffffffffffffffffffffffff167fddf252ad1be2c89b69c2b068fc378daa952ba7f163c4a11628f55a4df523b3ef836040518082815260200191505060405180910390a35050565b6040518060a0016040528060008152602001600081526020016000815260200160608152602001600073ffffffffffffffffffffffffffffffffffffffff1681525090565b828054600181600116156101000203166002900490600052602060002090601f016020900481019282601f10611ac557805160ff1916838001178555611af3565b82800160010185558215611af3579182015b82811115611af2578251825591602001919060010190611ad7565b5b509050611b009190611b42565b5090565b6040518060800160405280600081526020016000815260200160608152602001600073ffffffffffffffffffffffffffffffffffffffff1681525090565b611b6491905b80821115611b60576000816000905550600101611b48565b5090565b9056fe45524332303a207472616e7366657220746f20746865207a65726f206164647265737345524332303a20617070726f766520746f20746865207a65726f206164647265737345524332303a207472616e7366657220616d6f756e7420657863656564732062616c616e636545524332303a207472616e7366657220616d6f756e74206578636565647320616c6c6f77616e636545524332303a207472616e736665722066726f6d20746865207a65726f206164647265737345524332303a20617070726f76652066726f6d20746865207a65726f206164647265737345524332303a2064656372656173656420616c6c6f77616e63652062656c6f77207a65726fa265627a7a723158207ddfeafe9b386cb2bdded4d09ab728e0d1f5c9a11bbd5e30b5dfd628f367683464736f6c63430005100032",
  "source": "pragma solidity >0.5.0;\n\nimport \"./token/ERC20/ERC20.sol\";\n\ncontract CarbonCredit is ERC20 {\n\n    address contractOwner;\n\n    struct Generator {\n        uint id;\n        uint tokenBalance;\n        string generatorName;\n        address generatorAddress;\n    }\n\n    struct Consumer {\n        uint id;\n        uint tokenBalance;\n        uint emissions; //current emissions so far\n        string consumerName;\n        address consumerAddress;\n    }\n\n    mapping(uint => Generator) allGenerators;\n    mapping(uint => Consumer) allConsumers;\n    mapping(address => bool) allValidators;\n\n    mapping(uint => bool) generatorExists;\n    mapping(uint => bool) consumerExists;\n\n    uint[] consumerList;\n\n    // constructor() public ERC20(\"Carbon Token\", \"c\") {\n    //     contractOwner = msg.sender;\n    // }\n\n    constructor() public ERC20() {\n        contractOwner = msg.sender;\n    }\n\n    modifier isValidator() {\n        require(allValidators[msg.sender] == true);\n        _;\n    }\n\n    modifier isRegulator() {\n        require(contractOwner == msg.sender);\n        _;\n    }\n\n    //Create new generator and store in mapping, assign values (balance = 0)\n    function createGenerator(uint generatorId, string memory name, address thisAdd) public isRegulator {\n        require(generatorExists[generatorId] == false);\n\n        Generator memory newGenerator = Generator(\n            generatorId,\n            0,\n            name,\n            thisAdd\n        );\n\n        allGenerators[generatorId] = newGenerator;\n        generatorExists[generatorId] = true;\n\n    }\n    //Create new consumer and store in mapping, assign values (balance = limit)\n    function createConsumer(uint consumerId, string memory name, address thisAdd) public isRegulator {\n        require(consumerExists[consumerId] == false);\n\n        Consumer memory newConsumer = Consumer(\n            consumerId,\n            100,\n            0,\n            name,\n            thisAdd\n        );\n\n        allConsumers[consumerId] = newConsumer;\n        consumerExists[consumerId] = true;\n        consumerList.push(consumerId);\n    }\n\n\n    //Award tokens to generators when carbon saving projects are approved\n    function allocateCredit(uint generatorId, uint credit) public isValidator {\n        require(generatorExists[generatorId] == true);\n        require(credit > 0);\n\n        //_mint(contractOwner, allGenerators[generatorId].generatorAddress, credit, \"receive\", \"fromRegulator\");\n        _mint(allGenerators[generatorId].generatorAddress, credit);\n        allGenerators[generatorId].tokenBalance += credit;\n\n    }\n\n    //Validators input a emissions amt (frontend), add it to consumer's emissions value\n    function reportEmission(uint consumerId, uint emission) public isValidator {\n        require(emission > 0);\n        require(consumerExists[consumerId] == true);\n\n        allConsumers[consumerId].emissions = emission;\n    }\n\n    // Cant put int, must put uint, if not it screws up the entire contract\n    function updateConsumerBalance(uint consumerId, uint delta, bool subtract) public {\n        require(consumerExists[consumerId] == true);\n\n        if (subtract) {\n            allConsumers[consumerId].tokenBalance -= delta;\n        } else {\n            allConsumers[consumerId].tokenBalance += delta;\n        }\n\n    }\n\n    // Cant put int, must put uint, if not it screws up the entire contract\n    function updateGeneratorBalance(uint generatorId, uint delta, bool subtract) public {\n        require(generatorExists[generatorId] == true);\n\n\n        if (subtract) {\n            allGenerators[generatorId].tokenBalance -= delta;\n        } else {\n            allGenerators[generatorId].tokenBalance += delta;\n        }\n    }\n\n    // GETTERS\n    function getConsumerCredits(uint consumerId) public returns (uint credit) {\n        require(consumerExists[consumerId] == true);\n        return (allConsumers[consumerId].tokenBalance);\n    }\n\n    function getGeneratorCredits(uint generatorId) public returns (uint credit) {\n        require(generatorExists[generatorId] == true);\n        return (allGenerators[generatorId].tokenBalance);\n    }\n\n    function isGenerator(uint ID) public returns (bool doesExist) {\n        return (generatorExists[ID]);\n    }\n\n    function isConsumer(uint ID) public returns (bool doesExist) {\n        return (consumerExists[ID]);\n    }\n\n\n    // //For each consumer in mapping, check if emissions > tokenBalance. If yes, add to result list and return list.\n    // function checkEmission() isRegulator public returns (mapping(uint => uint[])) {\n    //     // the returned array contains [tokenBalance, emissions, amountExceededBy]\n    //     mapping(uint => uint[]) res;\n\n    //     for (uint i=0; i<consumerList.length; i++) {\n    //         uint thisID = consumerList[i];\n    //         uint thisBalance = allConsumers[thisID].tokenBalance;\n    //         uint thisEmission = allConsumers[thisID].emissions;\n\n    //         if (thisEmission > thisBalance) {\n    //             uint[] storage thisRes;\n    //             thisRes.push(thisBalance);\n    //             thisRes.push(thisEmission);\n    //             thisRes.push(thisEmission - thisBalance);\n\n    //             res[thisID] = thisRes;\n    //         }\n    //     }\n\n    //     return (res);\n    // }\n\n\n}",
  "sourcePath": "/Users/ernestchng/WebstormProjects/is4302-app/contracts/CarbonCredit.sol",
  "compiler": {
    "name": "solc",
    "version": "0.5.16+commit.9c3226ce.Emscripten.clang"
  },
  "schemaVersion": "3.3.3",
  "updatedAt": "2021-04-01T04:49:15.760Z",
  "networkType": "ethereum",
  "devdoc": {
    "methods": {
      "allowance(address,address)": {
        "details": "See {IERC20-allowance}."
      },
      "approve(address,uint256)": {
        "details": "See {IERC20-approve}.     * Requirements:     * - `spender` cannot be the zero address."
      },
      "balanceOf(address)": {
        "details": "See {IERC20-balanceOf}."
      },
      "decreaseAllowance(address,uint256)": {
        "details": "Atomically decreases the allowance granted to `spender` by the caller.     * This is an alternative to {approve} that can be used as a mitigation for problems described in {IERC20-approve}.     * Emits an {Approval} event indicating the updated allowance.     * Requirements:     * - `spender` cannot be the zero address. - `spender` must have allowance for the caller of at least `subtractedValue`."
      },
      "increaseAllowance(address,uint256)": {
        "details": "Atomically increases the allowance granted to `spender` by the caller.     * This is an alternative to {approve} that can be used as a mitigation for problems described in {IERC20-approve}.     * Emits an {Approval} event indicating the updated allowance.     * Requirements:     * - `spender` cannot be the zero address."
      },
      "totalSupply()": {
        "details": "See {IERC20-totalSupply}."
      },
      "transfer(address,uint256)": {
        "details": "See {IERC20-transfer}.     * Requirements:     * - `recipient` cannot be the zero address. - the caller must have a balance of at least `amount`."
      },
      "transferFrom(address,address,uint256)": {
        "details": "See {IERC20-transferFrom}.     * Emits an {Approval} event indicating the updated allowance. This is not required by the EIP. See the note at the beginning of {ERC20};     * Requirements: - `sender` and `recipient` cannot be the zero address. - `sender` must have a balance of at least `amount`. - the caller must have allowance for `sender`'s tokens of at least `amount`."
      }
    }
  },
  "userdoc": {
    "methods": {}
  }
}