{
  "contractName": "ERC20Migrator",
  "abi": [
    {
      "inputs": [
        {
          "internalType": "contract IERC20",
          "name": "legacyToken",
          "type": "address"
        }
      ],
      "payable": false,
      "stateMutability": "nonpayable",
      "type": "constructor"
    },
    {
      "constant": true,
      "inputs": [],
      "name": "legacyToken",
      "outputs": [
        {
          "internalType": "contract IERC20",
          "name": "",
          "type": "address"
        }
      ],
      "payable": false,
      "stateMutability": "view",
      "type": "function"
    },
    {
      "constant": true,
      "inputs": [],
      "name": "newToken",
      "outputs": [
        {
          "internalType": "contract IERC20",
          "name": "",
          "type": "address"
        }
      ],
      "payable": false,
      "stateMutability": "view",
      "type": "function"
    },
    {
      "constant": false,
      "inputs": [
        {
          "internalType": "contract ERC20Mintable",
          "name": "newToken_",
          "type": "address"
        }
      ],
      "name": "beginMigration",
      "outputs": [],
      "payable": false,
      "stateMutability": "nonpayable",
      "type": "function"
    },
    {
      "constant": false,
      "inputs": [
        {
          "internalType": "address",
          "name": "account",
          "type": "address"
        },
        {
          "internalType": "uint256",
          "name": "amount",
          "type": "uint256"
        }
      ],
      "name": "migrate",
      "outputs": [],
      "payable": false,
      "stateMutability": "nonpayable",
      "type": "function"
    },
    {
      "constant": false,
      "inputs": [
        {
          "internalType": "address",
          "name": "account",
          "type": "address"
        }
      ],
      "name": "migrateAll",
      "outputs": [],
      "payable": false,
      "stateMutability": "nonpayable",
      "type": "function"
    }
  ],
  "bytecode": "0x608060405234801561001057600080fd5b50604051610e80380380610e808339818101604052602081101561003357600080fd5b8101908080519060200190929190505050600073ffffffffffffffffffffffffffffffffffffffff168173ffffffffffffffffffffffffffffffffffffffff1614156100ca576040517f08c379a000000000000000000000000000000000000000000000000000000000815260040180806020018281038252602f815260200180610e51602f913960400191505060405180910390fd5b806000806101000a81548173ffffffffffffffffffffffffffffffffffffffff021916908373ffffffffffffffffffffffffffffffffffffffff16021790555050610d378061011a6000396000f3fe608060405234801561001057600080fd5b50600436106100575760003560e01c8063104d26141461005c57806313155455146100a05780635a8cadb1146100ea578063ad68ebf71461012e578063c42bd05a1461017c575b600080fd5b61009e6004803603602081101561007257600080fd5b81019080803573ffffffffffffffffffffffffffffffffffffffff1690602001909291905050506101c6565b005b6100a8610444565b604051808273ffffffffffffffffffffffffffffffffffffffff1673ffffffffffffffffffffffffffffffffffffffff16815260200191505060405180910390f35b61012c6004803603602081101561010057600080fd5b81019080803573ffffffffffffffffffffffffffffffffffffffff16906020019092919050505061046d565b005b61017a6004803603604081101561014457600080fd5b81019080803573ffffffffffffffffffffffffffffffffffffffff16906020019092919080359060200190929190505050610679565b005b610184610858565b604051808273ffffffffffffffffffffffffffffffffffffffff1673ffffffffffffffffffffffffffffffffffffffff16815260200191505060405180910390f35b600073ffffffffffffffffffffffffffffffffffffffff16600160009054906101000a900473ffffffffffffffffffffffffffffffffffffffff1673ffffffffffffffffffffffffffffffffffffffff161461026d576040517f08c379a0000000000000000000000000000000000000000000000000000000008152600401808060200182810382526028815260200180610c386028913960400191505060405180910390fd5b600073ffffffffffffffffffffffffffffffffffffffff168173ffffffffffffffffffffffffffffffffffffffff1614156102f3576040517f08c379a000000000000000000000000000000000000000000000000000000000815260040180806020018281038252602c815260200180610cad602c913960400191505060405180910390fd5b8073ffffffffffffffffffffffffffffffffffffffff1663aa271e1a306040518263ffffffff1660e01b8152600401808273ffffffffffffffffffffffffffffffffffffffff1673ffffffffffffffffffffffffffffffffffffffff16815260200191505060206040518083038186803b15801561037057600080fd5b505afa158015610384573d6000803e3d6000fd5b505050506040513d602081101561039a57600080fd5b8101908080519060200190929190505050610400576040517f08c379a0000000000000000000000000000000000000000000000000000000008152600401808060200182810382526029815260200180610c606029913960400191505060405180910390fd5b80600160006101000a81548173ffffffffffffffffffffffffffffffffffffffff021916908373ffffffffffffffffffffffffffffffffffffffff16021790555050565b60008060009054906101000a900473ffffffffffffffffffffffffffffffffffffffff16905090565b60008060009054906101000a900473ffffffffffffffffffffffffffffffffffffffff1673ffffffffffffffffffffffffffffffffffffffff166370a08231836040518263ffffffff1660e01b8152600401808273ffffffffffffffffffffffffffffffffffffffff1673ffffffffffffffffffffffffffffffffffffffff16815260200191505060206040518083038186803b15801561050d57600080fd5b505afa158015610521573d6000803e3d6000fd5b505050506040513d602081101561053757600080fd5b8101908080519060200190929190505050905060008060009054906101000a900473ffffffffffffffffffffffffffffffffffffffff1673ffffffffffffffffffffffffffffffffffffffff1663dd62ed3e84306040518363ffffffff1660e01b8152600401808373ffffffffffffffffffffffffffffffffffffffff1673ffffffffffffffffffffffffffffffffffffffff1681526020018273ffffffffffffffffffffffffffffffffffffffff1673ffffffffffffffffffffffffffffffffffffffff1681526020019250505060206040518083038186803b15801561061e57600080fd5b505afa158015610632573d6000803e3d6000fd5b505050506040513d602081101561064857600080fd5b8101908080519060200190929190505050905060006106678383610882565b90506106738482610679565b50505050565b600073ffffffffffffffffffffffffffffffffffffffff16600160009054906101000a900473ffffffffffffffffffffffffffffffffffffffff1673ffffffffffffffffffffffffffffffffffffffff161415610721576040517f08c379a0000000000000000000000000000000000000000000000000000000008152600401808060200182810382526024815260200180610c896024913960400191505060405180910390fd5b61076f8230836000809054906101000a900473ffffffffffffffffffffffffffffffffffffffff1673ffffffffffffffffffffffffffffffffffffffff1661089b909392919063ffffffff16565b600160009054906101000a900473ffffffffffffffffffffffffffffffffffffffff1673ffffffffffffffffffffffffffffffffffffffff166340c10f1983836040518363ffffffff1660e01b8152600401808373ffffffffffffffffffffffffffffffffffffffff1673ffffffffffffffffffffffffffffffffffffffff16815260200182815260200192505050602060405180830381600087803b15801561081857600080fd5b505af115801561082c573d6000803e3d6000fd5b505050506040513d602081101561084257600080fd5b8101908080519060200190929190505050505050565b6000600160009054906101000a900473ffffffffffffffffffffffffffffffffffffffff16905090565b60008183106108915781610893565b825b905092915050565b61099b848573ffffffffffffffffffffffffffffffffffffffff166323b872dd905060e01b858585604051602401808473ffffffffffffffffffffffffffffffffffffffff1673ffffffffffffffffffffffffffffffffffffffff1681526020018373ffffffffffffffffffffffffffffffffffffffff1673ffffffffffffffffffffffffffffffffffffffff1681526020018281526020019350505050604051602081830303815290604052907bffffffffffffffffffffffffffffffffffffffffffffffffffffffff19166020820180517bffffffffffffffffffffffffffffffffffffffffffffffffffffffff83818316178352505050506109a1565b50505050565b6109c08273ffffffffffffffffffffffffffffffffffffffff16610bec565b610a32576040517f08c379a000000000000000000000000000000000000000000000000000000000815260040180806020018281038252601f8152602001807f5361666545524332303a2063616c6c20746f206e6f6e2d636f6e74726163740081525060200191505060405180910390fd5b600060608373ffffffffffffffffffffffffffffffffffffffff16836040518082805190602001908083835b60208310610a815780518252602082019150602081019050602083039250610a5e565b6001836020036101000a0380198251168184511680821785525050505050509050019150506000604051808303816000865af19150503d8060008114610ae3576040519150601f19603f3d011682016040523d82523d6000602084013e610ae8565b606091505b509150915081610b60576040517f08c379a00000000000000000000000000000000000000000000000000000000081526004018080602001828103825260208152602001807f5361666545524332303a206c6f772d6c6576656c2063616c6c206661696c656481525060200191505060405180910390fd5b600081511115610be657808060200190516020811015610b7f57600080fd5b8101908080519060200190929190505050610be5576040517f08c379a000000000000000000000000000000000000000000000000000000000815260040180806020018281038252602a815260200180610cd9602a913960400191505060405180910390fd5b5b50505050565b60008060007fc5d2460186f7233c927e7db2dcc703c0e500b653ca82273b7bfad8045d85a47060001b9050833f9150808214158015610c2e57506000801b8214155b9250505091905056fe45524332304d69677261746f723a206d6967726174696f6e20616c7265616479207374617274656445524332304d69677261746f723a206e6f742061206d696e74657220666f72206e657720746f6b656e45524332304d69677261746f723a206d6967726174696f6e206e6f74207374617274656445524332304d69677261746f723a206e657720746f6b656e20697320746865207a65726f20616464726573735361666545524332303a204552433230206f7065726174696f6e20646964206e6f742073756363656564a265627a7a72315820b55ad3c70da4912a5c5a6db6aa9517d84603674abb1e5bb0293be788c25315ae64736f6c6343000510003245524332304d69677261746f723a206c656761637920746f6b656e20697320746865207a65726f2061646472657373",
  "source": "pragma solidity ^0.5.0;\n\nimport \"../token/ERC20/IERC20.sol\";\nimport \"../token/ERC20/ERC20Mintable.sol\";\nimport \"../token/ERC20/SafeERC20.sol\";\nimport \"../math/Math.sol\";\n\n/**\n * @title ERC20Migrator\n * @dev This contract can be used to migrate an ERC20 token from one\n * contract to another, where each token holder has to opt-in to the migration.\n * To opt-in, users must approve for this contract the number of tokens they\n * want to migrate. Once the allowance is set up, anyone can trigger the\n * migration to the new token contract. In this way, token holders \"turn in\"\n * their old balance and will be minted an equal amount in the new token.\n * The new token contract must be mintable. For the precise interface refer to\n * OpenZeppelin's {ERC20Mintable}, but the only functions that are needed are\n * {MinterRole-isMinter} and {ERC20Mintable-mint}. The migrator will check\n * that it is a minter for the token.\n * The balance from the legacy token will be transferred to the migrator, as it\n * is migrated, and remain there forever.\n * Although this contract can be used in many different scenarios, the main\n * motivation was to provide a way to migrate ERC20 tokens into an upgradeable\n * version of it using ZeppelinOS. To read more about how this can be done\n * using this implementation, please follow the official documentation site of\n * ZeppelinOS: https://docs.zeppelinos.org/docs/erc20_onboarding.html\n *\n * Example of usage:\n * ```\n * const migrator = await ERC20Migrator.new(legacyToken.address);\n * await newToken.addMinter(migrator.address);\n * await migrator.beginMigration(newToken.address);\n * ```\n */\ncontract ERC20Migrator {\n    using SafeERC20 for IERC20;\n\n    /// Address of the old token contract\n    IERC20 private _legacyToken;\n\n    /// Address of the new token contract\n    ERC20Mintable private _newToken;\n\n    /**\n     * @param legacyToken address of the old token contract\n     */\n    constructor (IERC20 legacyToken) public {\n        require(address(legacyToken) != address(0), \"ERC20Migrator: legacy token is the zero address\");\n        _legacyToken = legacyToken;\n    }\n\n    /**\n     * @dev Returns the legacy token that is being migrated.\n     */\n    function legacyToken() public view returns (IERC20) {\n        return _legacyToken;\n    }\n\n    /**\n     * @dev Returns the new token to which we are migrating.\n     */\n    function newToken() public view returns (IERC20) {\n        return _newToken;\n    }\n\n    /**\n     * @dev Begins the migration by setting which is the new token that will be\n     * minted. This contract must be a minter for the new token.\n     * @param newToken_ the token that will be minted\n     */\n    function beginMigration(ERC20Mintable newToken_) public {\n        require(address(_newToken) == address(0), \"ERC20Migrator: migration already started\");\n        require(address(newToken_) != address(0), \"ERC20Migrator: new token is the zero address\");\n        //solhint-disable-next-line max-line-length\n        require(newToken_.isMinter(address(this)), \"ERC20Migrator: not a minter for new token\");\n\n        _newToken = newToken_;\n    }\n\n    /**\n     * @dev Transfers part of an account's balance in the old token to this\n     * contract, and mints the same amount of new tokens for that account.\n     * @param account whose tokens will be migrated\n     * @param amount amount of tokens to be migrated\n     */\n    function migrate(address account, uint256 amount) public {\n        require(address(_newToken) != address(0), \"ERC20Migrator: migration not started\");\n        _legacyToken.safeTransferFrom(account, address(this), amount);\n        _newToken.mint(account, amount);\n    }\n\n    /**\n     * @dev Transfers all of an account's allowed balance in the old token to\n     * this contract, and mints the same amount of new tokens for that account.\n     * @param account whose tokens will be migrated\n     */\n    function migrateAll(address account) public {\n        uint256 balance = _legacyToken.balanceOf(account);\n        uint256 allowance = _legacyToken.allowance(account, address(this));\n        uint256 amount = Math.min(balance, allowance);\n        migrate(account, amount);\n    }\n}\n",
  "sourcePath": "/Users/ernestchng/WebstormProjects/is4302-app/contracts/drafts/ERC20Migrator.sol",
  "compiler": {
    "name": "solc",
    "version": "0.5.16+commit.9c3226ce.Emscripten.clang"
  },
  "schemaVersion": "3.3.3",
  "updatedAt": "2021-04-01T03:45:24.292Z",
  "devdoc": {
    "details": "This contract can be used to migrate an ERC20 token from one contract to another, where each token holder has to opt-in to the migration. To opt-in, users must approve for this contract the number of tokens they want to migrate. Once the allowance is set up, anyone can trigger the migration to the new token contract. In this way, token holders \"turn in\" their old balance and will be minted an equal amount in the new token. The new token contract must be mintable. For the precise interface refer to OpenZeppelin's {ERC20Mintable}, but the only functions that are needed are {MinterRole-isMinter} and {ERC20Mintable-mint}. The migrator will check that it is a minter for the token. The balance from the legacy token will be transferred to the migrator, as it is migrated, and remain there forever. Although this contract can be used in many different scenarios, the main motivation was to provide a way to migrate ERC20 tokens into an upgradeable version of it using ZeppelinOS. To read more about how this can be done using this implementation, please follow the official documentation site of ZeppelinOS: https://docs.zeppelinos.org/docs/erc20_onboarding.html * Example of usage: ``` const migrator = await ERC20Migrator.new(legacyToken.address); await newToken.addMinter(migrator.address); await migrator.beginMigration(newToken.address); ```",
    "methods": {
      "beginMigration(address)": {
        "details": "Begins the migration by setting which is the new token that will be minted. This contract must be a minter for the new token.",
        "params": {
          "newToken_": "the token that will be minted"
        }
      },
      "constructor": {
        "params": {
          "legacyToken": "address of the old token contract"
        }
      },
      "legacyToken()": {
        "details": "Returns the legacy token that is being migrated."
      },
      "migrate(address,uint256)": {
        "details": "Transfers part of an account's balance in the old token to this contract, and mints the same amount of new tokens for that account.",
        "params": {
          "account": "whose tokens will be migrated",
          "amount": "amount of tokens to be migrated"
        }
      },
      "migrateAll(address)": {
        "details": "Transfers all of an account's allowed balance in the old token to this contract, and mints the same amount of new tokens for that account.",
        "params": {
          "account": "whose tokens will be migrated"
        }
      },
      "newToken()": {
        "details": "Returns the new token to which we are migrating."
      }
    },
    "title": "ERC20Migrator"
  },
  "userdoc": {
    "methods": {}
  }
}